:1000000010C0C0C01CC01BC01AC019C018C017C087
:1000100016C015C014C013C012C011C010C00FC04C
:100020000EC011241FBECFEDCDBF20E0A0E6B0E092
:1000300001C01D92A436B207E1F7C1D056C1E0CF8E
:10004000CF93DF93CDB7DD27C350CDBF49837A83EC
:100050006B83FE013196AC014D5F5F4FE199FECF9E
:100060001CBA9FBB8EBB21912DBBE29AE19A0196EF
:100070008417950799F7CD5FCDBFDF91CF91089594
:10008000E199FECF9FBB8EBBE09A8DB308951F937D
:10009000CF93DF93C0916000D091610085E083BF72
:1000A0004091600050916100609162007091630026
:1000B00088E090E0C5DF11E008B600FEFDCF18BF74
:1000C0008091620090916300019690936300809309
:1000D0006200809162009091630086379D4071F0CC
:1000E00080916200909163008C3E9A4139F080913A
:1000F0006200909163008236984259F4409160000A
:1001000050916100609162007091630088E090E01E
:1001100097DF80916200909163008A3D954310F1D2
:1001200010926300109262008091600090916100D3
:10013000019790936100809360008091600090919E
:100140006100892BD9F44091600050916100609169
:1001500062007091630088E090E072DF8BB38F6A79
:100160008BBB0CC08091600090916100C817D907CB
:1001700008F0A2CF1092630010926200DF91CF913D
:100180001F9108951F920F920FB60F9211248F9313
:100190009F9380916000909161000196909361001F
:1001A000809360009F918F910F900FBE0F901F90D2
:1001B000189583E085BF8BB780648BBF08957894D2
:1001C0008AB38F6E8ABB8BB38F6A8BBBF2DF8BB324
:1001D00080728BBB2FE986E891E0215080409040EF
:1001E000E1F700C000008BB38F6B8BBB2FE986E873
:1001F00091E0215080409040E1F700C0000088E08D
:1002000090E03EDF90E0909361008093600089E091
:1002100090E036DFC82F8AE090E032DF2C2F30E00C
:10022000322F2227282B3093630020936200809185
:10023000600090916100069790F01092610010921A
:100240006000409160005091610060916200709187
:10025000630088E090E0F4DE8BB38F6A8BBB809103
:100260006200909163008B3D954320F010926300F3
:10027000109262008091600090916100833091053E
:10028000E9F030F48130910549F0029779F0CFCF51
:1002900084309105D9F0059709F1C9CF8BB38F68E8
:1002A0008BBB8BB38E788BBBF2DEC1CF8BB38F68E9
:1002B0008BBB8BB38C788BBBEADEB9CF8BB38F68EB
:1002C0008BBB8BB388788BBBE2DEB1CF8BB38F68EF
:1002D0008BBB8BB380788BBBDADEA9CF8BB38F68F7
:0E02E0008BBB8BB31BBAD3DEA2CFF894FFCF3B
:00000001FF
